:020000040800F2
:10000000D85D002061020008B93C00086D3200088C
:100010005339000867090008414E0008000000003D
:10002000000000000000000000000000A101000826
:10003000C90A000800000000FD0100082B45000867
:100040007B0200087B0200087B0200087B0200089C
:100050007B0200087B0200087B0200087B0200088C
:100060007B0200087B0200087B0200087B0200087C
:100070007B0200087B0200087B0200087B0200086C
:100080007B0200087B0200087B0200088D09000843
:10009000690900087509000881090008CB0A0008F1
:1000A0007B0200087B0200087B0200087B0200083C
:1000B000E9450008F54500087B0200087B020008BE
:1000C0007B0200087B0200087B0200087B0200081C
:1000D0007B020008794D00087B0200087B020008C3
:1000E0007B0200087B0200087B0200087B020008FC
:1000F0007B0200087B0200087B0200087B020008EC
:100100007B0200087B0200087B0200087B020008DB
:10011000614900086D4900087B0200087B02000865
:100120007B0200087B0200080D0A00087B02000821
:100130007B0200087B0200087B020008BD09000862
:1001400099090008A5090008B10900087B02000808
:100150007B0200087B020008190A00087B020008E5
:100160007B0200087B0200087B0200087B0200087B
:100170007B0200087B0200087B02000800000000F0
:100180007B0200087B020008DFF810D000F0BAFB09
:100190000048004799600008AFF30080D85D002058
:1001A0002C4B19680868B0E8F04F80F30988BFF35A
:1001B0006F8F4FF0000080F311887047000000003F
:1001C00008480068006880F308884FF0000080F35A
:1001D000148862B661B6BFF34F8FBFF36F8F00DF35
:1001E00000BF00BF08ED00E0DFF80C00016841F43B
:1001F00070010160704700BF88ED00E0EFF30980F7
:10020000BFF36F8F134B1A681EF0100F08BF20ED5D
:10021000108A20E9F04F106009B44FF0500080F3CD
:100220001188BFF34F8FBFF36F8F06F0DBFE4FF0E7
:10023000000080F3118809BC19680868B0E8F04F25
:100240001EF0100F08BFB0EC108A80F30988BFF3CE
:100250006F8F704738000020EFF305807047000073
:100260000648804706480047FEE7FEE7FEE7FEE750
:10027000FEE7FEE7FEE7FEE7FEE7FEE7D9450008FA
:10028000890100082DE9F05F0546002092469B4653
:1002900088460646814640241BE02846414647469C
:1002A000224600F028FA53465A46C01A914110D30C
:1002B00011461846224600F00FFA2D1A67EB010886
:1002C0004F4622460120002100F006FA17EB0009F4
:1002D0004E41201EA4F10104DFDC484631462A4687
:1002E0004346BDE8F09F40EA01039B0703D009E0C5
:1002F00008C9121F08C0042AFAD203E011F8013B12
:1003000000F8013B521EF9D27047D2B201E000F86A
:10031000012B491EFBD270470022F6E710B51346A9
:100320000A4604461946FFF7F0FF204610BD2DE9A6
:10033000FE4F804681EA0300C00F0C46009021F07A
:10034000004123F00045B8EB0200A94105D2404628
:10035000214690461C460B46024623F000401043BF
:1003600047D0270DC7F30A00C3F30A510290401A81
:10037000019040286BDAC3F3130040F4801B00980F
:10038000924620B10023D2EB030A63EB0B0B0198DA
:100390005946C0F14002504600F09EF906460D460F
:1003A00050465946019A00F0B6F910EB0800614139
:1003B000002487EA115284EAE7731A4340D0009A76
:1003C00062B3019A012A4FEA075215DC001B61EB68
:1003D00002014FF0004202EA0752CDE90042001C40
:1003E00041F5801132462B4600F0EDF903B0BDE82F
:1003F000F08F40462146F9E7001B61EB0201001C2B
:1004000041F5801300185B412018A2F5001747EB57
:10041000030140EAD570B6196D4111E06D084FEA4D
:10042000360645EAC0754FEA0752001B61EB020130
:10043000001C41F5801149084FEA30000019514174
:1004400032462B4603B0BDE8F04F00F0ADB900983E
:10045000012240000023D0EB020263EBE07300981E
:1004600021464FEAE074B8EB000061EB0401E9E7D4
:1004700083F000435BE781F0004158E72DE9FE4F30
:1004800081EA030404F0004421F0004100944FF09D
:10049000000B23F0004350EA01045ED052EA03044B
:1004A0005BD0C3F30A54C1F30A552C44A4F2F334CD
:1004B0000194A0FB0254C1F3130141F48011C3F372
:1004C000130343F4801301FB024400FB034E840A30
:1004D000970A44EA815447EA8357A4FB07680295C8
:1004E0008D0A05FB07854FEA932C04FB0C54270566
:1004F000029D4FEA065847EA1637B5EB08056EEB42
:10050000070C870E920E47EA811742EA8312A7FB77
:100510000201B6EB0B0164EB00042B0D43EA0C3334
:100520005E1844EB1C50DA465146E7FB0201C5F366
:1005300013044FEA0B3343EA14534FEA0432019C8D
:1005400043EA0603A4F10C040294009CCDE900B434
:1005500000F039F903B0BDE8F08F00200146F9E75B
:100560002DE9F04D81EA030404F0004B21F0004531
:1005700014464FF0000A23F0004150EA050220D053
:1005800054EA01021DD0C5F30A570246C5F313030E
:10059000C1F31300C1F30A5640F4801543F48013ED
:1005A000A7EB0608101BD64608F2FD3873EB0500D2
:1005B00002D308F1010801E092185B41B8F1000F85
:1005C00003DA00200146BDE8F08D00204FF48011D1
:1005D000064684460EE0171B73EB050705D3121B76
:1005E00063EB050306434CEA010C49084FEA30006F
:1005F00092185B4150EA0107EDD152EA030012D094
:1006000082EA040083EA0501084305D0101BAB41D0
:1006100006D20122002306E000224FF0004302E050
:100620006FF0010253101AEB06004CEB085110EB6F
:100630000A0041EB0B01BDE8F04D00F0B5B80EB576
:10064000C10F80EAE0700844CA07002140F233433A
:100650008DE80E000A460B4600F0B5F803B000BD69
:100660000EB540F2334102910021CDE900110A4656
:100670000B4600F0A8F803B000BD00F0004230F0D7
:1006800000400AD0C10D01F56071C0F3160042EAC6
:100690000151C208400711437047002001467047CE
:1006A00001F0004330B421F0004150EA010206D0CD
:1006B0000A0DA2F56072C1F31301002A02DC30BCFE
:1006C00000207047440F44EAC104C100E01830BC68
:1006D00000EBC25000F031B8202A04DB203A00FAC7
:1006E00002F1002070479140C2F1200320FA03F389
:1006F000194390407047202A04DB203A21FA02F087
:100700000021704721FA02F3D040C2F1200291404B
:10071000084319467047202A06DBCB17203A41FAD6
:1007200002F043EAE07306E041FA02F3D040C2F17E
:10073000200291400843194670470029A8BF70471E
:10074000401C490008BF20F00100704710B4B0FA07
:1007500080FC00FA0CF050EA010404BF10BC7047A2
:1007600049B1CCF1200421FA04F411FA0CF118BFBC
:10077000012121430843A3EB0C01CB1D4FEA00618B
:100780004FEA102042BF002010BC704700EBC3505E
:1007900010440029A4BF10BC7047401C490008BF8A
:1007A00020F0010010BC704710B5141E73F1000456
:1007B00008DA401C41F1000192185B411A4301D153
:1007C00020F0010010BD2DE9F04D92469B4611B17D
:1007D000B1FA81F202E0B0FA80F220329046FFF7DF
:1007E0007BFF04460F4640EA0A0041EA0B015346EC
:1007F0005A46084313D0114653EA010019D0C8F1F4
:1008000040025046FFF777FF05460E4650465946D0
:100810004246FFF761FF084305D0012004E020466F
:100820003946BDE8F08D0020054346EAE0762C43CA
:1008300037430A986305E40AA0EB08000022FD0A8A
:1008400044EA47540A3002D500200146E9E7010591
:1008500010196941DDE9084500196941BDE8F04D0D
:10086000A2E72DE9F04D00231A461B1A8A4103DB4B
:1008700000200146BDE8F08DC1F30A52C1F3130117
:1008800041F480154FF0000BD10702D100186D41E3
:10089000521E0027044640F2FF11384601EB620A5F
:1008A0003E468046024600204FF48011FFF723FFAA
:1008B000C2197141BB1846EB0100B4EB030C75EB98
:1008C000000C04D3E41A65EB000517460E46241904
:1008D00008F101006D4180463428E3DDF91946EB4B
:1008E0000600091BA84103D24FF0FF32134601E076
:1008F000002213461BEB070046EB0A51BDE8F04D02
:10090000FFF752BF064C074D06E0E06840F00103D8
:1009100094E8070098471034AC42F6D3FFF738FC50
:10092000607D0008807D000870B5C1F30A5201F0B7
:1009300000450024C1F3130140F2FF3341F480115C
:100940009A4201DA002070BD40F233439A42A2F28B
:10095000334203DC5242FFF7CEFE00E090402C43CE
:10096000F1D0404270BDFEE7014800F044BA0000FB
:100970001C010020014800F03EBA00001C010020CC
:10098000014800F038BA00001C010020014800F0C6
:1009900032BA00001C010020014800F02CBA00000F
:1009A00044010020014800F026BA00004401002064
:1009B000014800F020BA000044010020014800F086
:1009C0001ABA0000440100200D4890F83C1001299B
:1009D00009D09FED0C0A80ED030A80ED040A80ED3A
:1009E000050A03F025BC084991ED050A80ED010ACE
:1009F00091ED060A80ED020A91ED070AEFE700008B
:100A0000244E00200000000034580020014800F06F
:100A10002DBD0000A8040020014800F027BD000003
:100A20004804002001681823CAB2103AB2FBF3F25E
:100A3000054B6FF30901032A9B5CC36500D9091DAF
:100A40008165084670470000AC7B000810B5014680
:100A500000208B698A6A4FF0C07453B1B3F5005F10
:100A600015D072B1012A0CD0022A0AD0032A09D16A
:100A700004E01AB1012A06D0022A03D1C96AC901C9
:100A800000D5012010BDC96AA142FAD010BD002ACC
:100A9000F7D0012AF2D0022AF3D0032AF3D010BDF6
:100AA00030B50468256825F48025256004686360F6
:100AB0008368402B036803D099600068C26030BD32
:100AC0009A600068C16030BD7047802000F026BF8A
:100AD00072B6FEE790F82020012A07D0022A05D03E
:100AE000416A41F4802141620120704700684269F7
:100AF0000A43426100207047F0B590F82050046826
:100B0000A468012D05D0022D03D0416A41F4802153
:100B10005DE014F0406F01D1E50055D5C4F30164E8
:100B2000022C03D9416A41F4000150E00125A5409F
:100B30001D608B684FF4C0759BB1CE6833434E681F
:100B400043EAC603066805EB0417F3514FF4C2737A
:100B5000076803EB04130E69FE50097D012905D0D7
:100B600009E00E88CB6843EA4653EBE70168CE58AC
:100B700046F48076CE501179D379567941EA0361F3
:100B800093791B0443EA062319434FF4C67603689E
:100B900006EB041699511178D37841EA03619378F2
:100BA00052781B0443EA022211434FF4C4730268D3
:100BB00003EB0413D150006805EB0411425842F0D6
:100BC000010242500020F0BD416A41F4001141622F
:100BD0000120F0BD10B590F82020012A07D0022A8C
:100BE00005D0416A41F480214162012010BD3B489B
:100BF000D0F8002242F00102C0F80022D0F8002212
:100C000022F47C52C0F80022D0F800224B6A42EA5B
:100C10000322C0F800220A7D02F01F0301229A403D
:100C2000D0F81C329343C0F81C32CB69B3B9D0F86A
:100C30000C329343C0F80C328C894B6864F31F4329
:100C40004C6900EBC404C4F840320C890B6864F3AF
:100C50001F434C6900EBC404C4F84432CB69012B38
:100C600016D1D0F80C321343C0F80C320C884B6804
:100C700064F31F434C6900EBC404C4F840320C8990
:100C8000CB6864F31F434C6900EBC404C4F84432DE
:100C90008B69002BD0F804320ED01343C0F8043215
:100CA0000B69002BD0F8143208D01343C0F814326B
:100CB000096A012904D008E09343EFE79343F5E77D
:100CC000D0F81C121143C0F81C12D0F8001221F009
:100CD0000101C0F80012002010BD000000640040B7
:100CE000704730B590F82040012C05D0022C03D07D
:100CF000416A41F480215DE00468002955D02469EF
:100D0000A40754D04FF4D874056804EB01142D598E
:100D100015F00405956005682D594ED0ED08556015
:100D200005682C5904F00204D4604FF4DA740568A5
:100D300004EB01142D5905F00F05156105682D59B7
:100D4000C5F30725956105682C59240C54614FF4AF
:100D5000DC72046802EB0112A4581C700468A458E9
:100D6000240A5C700468A458240C9C700468A2587F
:100D7000120EDA704FF4DE72046802EB0112A4580E
:100D80001C710468A458240A5C710468A458240CDB
:100D90009C710468A258120EDA71006881B1016971
:100DA00041F020010161002030BDE468A8E7416AFC
:100DB00041F400114162012030BD6D0D1560AFE7B7
:100DC000C16841F02001C160EDE70246002092F8C1
:100DD0002010012901D002290CD111688A68520122
:100DE00000D501208A68120100D5401C8968C9001D
:100DF00000D5401C70472DE9F05F054600680024CF
:100E00004669D0F804908768D0F80CB0D0F810A0EC
:100E1000D0F81880F10748D0F90714D0012181607B
:100E2000B80703D5284600F08EFA0CE0780702D503
:100E30004FF4006407E0380702D54FF4805402E015
:100E4000284600F07FFAF80516D529684FF480701F
:100E50008860B80503D5284600F077FA0CE07805DD
:100E600002D544F4005407E0380502D544F4804428
:100E700002E0284600F068FAF80316D529684FF416
:100E800080308860B80303D5284600F060FA0CE093
:100E9000780302D544F4004407E0380302D544F453
:100EA000803402E0284600F051FA300707D55FEAA7
:100EB000CB6004D52968102044F40074C860700722
:100EC0004FF0080707D55FEA0B7004D52868C760A4
:100ED000284600F0C9F9B00706D52868C068800721
:100EE00002D0284600F0C2F9700607D55FEACA6052
:100EF00004D52968102044F480640861B00607D541
:100F00005FEA0A7004D528680761284600F0ECF90A
:100F1000F00606D528680069800702D0284600F050
:100F2000E4F9B00308D55FEAC96005D52968102047
:100F30004860284600F0DAF9F00307D55FEA097047
:100F400004D528684760284600F002FA300446D5E8
:100F50005FEA497040D5F00504D55FEAC87001D05A
:100F600044F00104B00504D55FEA887001D544F06F
:100F70000204700504D55FEA487001D544F004040A
:100F8000300529D518F0700F26D008F070004028E1
:100F900015D006DC102809D020280AD0302816D118
:100FA0000AE050280ED0602811D10EE044F0080469
:100FB0000DE044F010040AE044F0200407E044F09F
:100FC000400404E044F0800401E044F480742868A4
:100FD000816921F070018161296804204860002C3A
:100FE00005D0686A204368622846FFF779FEBDE8AD
:100FF000F09F70B5040003D094F8200010B104E015
:10100000012070BD204600F081F82068016841F0A1
:101010000101016000F07CFD0546052604E000F0BA
:1010200077FD401B0A2811D820684068C007F6D019
:101030002068016821F00201016000F069FD0546A9
:101040000BE000F065FD401B0A2806D9606A40F4F9
:101050000030606284F82060D2E720684068800732
:10106000EFD4207E0128206801683DD021F0800166
:101070000160607E01282068016838D021F04001BD
:101080000160A07E01282068016833D021F0200192
:101090000160E07E0128206801682ED041F0100137
:1010A0000160207F01282068016829D021F0080113
:1010B0000160607F01282068016824D021F00401CC
:1010C0000160D4E902010843D4E904121143084342
:1010D0006168491E08432168C861002060620120E0
:1010E00084F82000002070BD41F08001C0E741F08D
:1010F0004001C5E741F02001CAE721F01001CFE728
:1011000041F00801D4E741F00401D9E7F0B587B018
:10111000044614216846FFF7FFF84E494E4ADFF8AF
:1011200030E10868D4F800C04B4B0224032509269F
:1011300010320027401CF4453BD10860012807D13C
:10114000106840F000701060106800F000700590AA
:10115000186840F0010018601868694600F0010046
:1011600005904FF4C0508DE89100CDE903563B48FF
:1011700000F0E0FB00220221132000F08FFE13207C
:1011800000F07FFE00220221142000F087FE1420D0
:1011900000F077FE00220221152000F07FFE1520CE
:1011A00000F06FFE00220221162000F077FE1620CC
:1011B0004AE0DFF8ACE0F44548D1D2F800C04CF08A
:1011C000806CC2F800C0D2F800C001280CF0806C1E
:1011D000CDF814C0086007D1106840F000701060AE
:1011E000106800F000700590186840F00200186068
:1011F0001868694600F0020005904FF440508DE8F1
:101200009100CDE90356174800F094FB0022052118
:101210003F2000F043FE3F2000F033FE0022052176
:10122000402000F03BFE402000F02BFE0022052174
:10123000412000F033FE412000F023FE0022052172
:10124000422000F02BFE422000F01BFE07B0F0BD54
:1012500000640040240000203038024000000240BA
:1012600000680040000402407047000070B51A4951
:10127000054688B0022008801848854219D18B1C89
:101280006A460021FFF72DFD029890B91249684681
:10129000891C04F08FFE124E0024C4EBC40000EB46
:1012A000441006EB800002F017FF641CA4B2082C67
:1012B000F3D30C4885420DD1074B6A460A3300210F
:1012C000FFF70FFD0298042804D1034968460A314C
:1012D00004F060FD08B070BDD40000201C010020A7
:1012E0007C4E00204401002070477047704770B565
:1012F000044690F82000012804D0606A40F40020E1
:10130000606217E0022084F820002068016821F064
:101310000101016000F0FCFB05460DE000F0F8FB68
:10132000401B0A2808D9606A40F40030606205203A
:1013300084F82000012070BD20684068C007EDD10E
:10134000606270BD70477047704770477047704764
:1013500070472DE9F0410446876D00F0D9FB054642
:1013600094F835000026022806D08020606584F8B5
:1013700034600120BDE8F0812068016821F0160189
:1013800001602068416921F080014161206C08B949
:10139000A06C20B12068016821F00801016020687C
:1013A000016821F0010101600CE000F0B1FB401B7D
:1013B000052807D920206065032084F8350084F8CB
:1013C0003460D7E720680068C007EED194F85C105D
:1013D0003F208840B860012084F8350084F83460EC
:1013E0000020C7E790F83510022903D0802141651D
:1013F00001207047052180F835100068016821F050
:10140000010101600020704770B504002BD094F8F2
:101410003500022826D02068016821F00101016012
:101420002068002505602068456020688560206888
:10143000C560206805612168212048612046FFF7CA
:10144000F1FAE56325646564A564E564256594F8AF
:101450005C203F2191408160656584F8355084F8B7
:101460003450002070BD012070BD00002DE9F8430C
:1014700004464FF00009CDF8009063484FF4165130
:10148000A56D0068B0FBF1F72E6894F85C20082188
:1014900001FA02F030420FD02068026852070BD5E3
:1014A000026822F00402026094F85C008140A960A6
:1014B000606D40F00100606594F85C104FF0010829
:1014C00008FA01F0304208D021684969090604D5BC
:1014D000A860606D40F00200606594F85C10042024
:1014E0008840304208D021680968890704D5A8607F
:1014F000606D40F00400606594F85C101020884036
:10150000304218D021680968090714D5A8602068FE
:101510000168490304D50068000308D5A16C07E001
:101520000168C90503D4016821F008010160216C3C
:1015300009B12046884794F85C102020884030424A
:1015400031D021680968C9062DD5A86094F8350006
:1015500005282068016806D0490347D500680003C4
:101560001DD4616C1CE021F0160101602068416906
:1015700021F080014161206C08B9A06C20B1206885
:10158000016821F00801016094F85C103F20884058
:10159000A86084F8358084F83490216D1FE0E16BF9
:1015A00009B120468847606D00282BD0606DC007C8
:1015B00014D0052084F835002068016821F001016D
:1015C00001600098401C0090B84203D82068006871
:1015D000C007F6D184F8358084F83490E16C002996
:1015E00010D001B02046BDE8F04308470168C905A6
:1015F000D5D4016821F01001016084F8358084F8A9
:101600003490CCE7BDE8F883340000202DE9F041A8
:10161000044600F07DFA05465CB1022084F83500EE
:10162000002684F834602068016821F0010101601F
:101630000DE00120BDE8F08100F06AFA401B0528AA
:1016400005D920206065032084F83500F2E7206882
:101650000068C007F0D121680A6820480240D4E938
:1016600001031843D4E903352B4318436369184336
:10167000A3691843E3691843236A18431043626A55
:10168000042A03D1D4E90B231A43104308602068CD
:101690004069656A20F0070128460D4301270428A8
:1016A0000CD1A06A0543E06A40B12046FFF7CEF9AD
:1016B00020B14020606584F83570BAE72068456144
:1016C0002046FFF7AFF994F85C203F2191408160FC
:1016D000666584F835700020ACE700003F8010F0AC
:1016E0002DE9F0410446866D90F83400002501286C
:1016F0000DD0012084F8340094F835700020012FBB
:1017000007D084F8340002252846BDE8F081022085
:10171000FBE7022784F8357060652046FFF7C0F9C3
:1017200094F85C103F208840B0602068016841F068
:1017300016010160206C20B12068016841F00801A9
:1017400001602068016841F001010160DCE70000F0
:1017500070B5044600F0DCF90546601C02D0044870
:101760000078044400F0D4F9401BA042FAD370BDC5
:10177000280000202DE9F04FDFF8F0A08946002274
:101780004FF0010B4FF00F0C0BFA02F609EA0603BB
:10179000B34265D122F003045444D4F808189507E5
:1017A0002F0F0CFA07F505EA01083149884201D1EB
:1017B000002123E02F49884201D101211EE02E495A
:1017C000884201D1022119E02C49884201D103212C
:1017D00014E02B49884201D104210FE029498842B5
:1017E00001D105210AE02849884201D1062105E0FE
:1017F0002649884201D1072100E00821B94041452E
:1018000015D1234F3968994339603F1D3968994391
:1018100039601F4F0C373968994339603F1F396869
:1018200099433960D4F80818A943C4F80818036824
:1018300054000321A1408B430360D30800EB8303D2
:101840001D6A5407E70E0CFA07F4A5431D62C3682E
:101850008B43C3604368B343436083688B438360B7
:10186000521C102A90D3BDE8F08F000000300140D8
:10187000000002400004024000080240000C024048
:10188000001002400014024000180240001C0240F8
:10189000003C014070B51F4C80280DD16169C00526
:1018A0002161426AE06840F27123584302EB001064
:1018B0006061A060401AA0806078002501210128A5
:1018C000A08840F6980205D0904202D36170A570BE
:1018D000257070BD904203D36170A570217070BDFA
:1018E000A0F2B63140F24C42914210D80A4AA17897
:1018F00022F81100491CC8B2A0700828EFD306498D
:10190000420001F11400FEF7EEFCA57070BD657099
:1019100070BD0000FC000020D8580020044910B51C
:101920000A68024202D00860FFF7B4FF10BD000051
:10193000143C01402DE9F84FDFF89C910022A9F1F9
:10194000040B03274FF00F0C09F1040AABF1040E4E
:1019500001250B6895402B40AB426ED10C7904F009
:101960000304012C01D0022C15D18668540007FA1B
:1019700004F826EA0806D1F80C8008FA04F848EAC8
:101980000608C0F808804468AC430D79C5F300151B
:101990009540254345600C79E443A40708D0C56809
:1019A000540007FA04F6B5438E68A6402E43C6607D
:1019B0000C7904F00304022C11D1D40800EB840646
:1019C000356A5407E40E0CFA04F825EA0805D1F844
:1019D000108008FA04F848EA0508C6F8208005686F
:1019E000540007FA04F6B5430E7906F00306A64044
:1019F0002E4306604C6814F4403F66D0374C25688F
:101A000045F480452560246822F0030504F48044F1
:101A10000094334C05EB0408D8F808589407260FB7
:101A20000CFA06F4A5432F4CA04201D1002424E077
:101A30002D4CA04202D101241FE046E02B4CA042D5
:101A400001D1022419E02A4CA04201D1032414E060
:101A5000284CA04201D104240FE0274CA04201D120
:101A600005240AE0254CA04201D1062405E0244CBF
:101A7000A04201D1072400E00824B4402C43C8F858
:101A80000848D9F800404D464E689C43F60200D500
:101A90001C432C60DAF8004055464E689C43B60261
:101AA00000D51C432C60DBF800405D464E689C432B
:101AB000B60300D51C432C60DEF8004075464E6826
:101AC0009C43F60300D51C432C60521C102AFFF4E3
:101AD0003FAFBDE8F88F0000083C014044380240A9
:101AE00000300140000002400004024000080240B3
:101AF000000C024000100240001402400018024096
:101B0000001C02400AB1816170470904FBE7000034
:101B100001488068704700002800002070B504006C
:101B200025D094F83D00002520B984F83C5020468B
:101B300000F0B8F8242084F83D002068016821F006
:101B4000010101602068016841F4004101602068E2
:101B5000016821F40041016000F08CFA4D4B61688E
:101B6000994201D84C4900E04C49884201D20120F9
:101B700070BD4B492268B0FBF1F1566826F03F0674
:101B80000E43566062689A4206D94FF496725143EA
:101B90004FF47A72B1FBF2F12268491C166A26F002
:101BA0003F06314311626168994210D84900401ED6
:101BB000B0FBF1F2521CC2F30B02042A01D2042042
:101BC00022E0B0FBF1F0401CC0F30B001CE0A26867
:101BD000F2B301EBC10303EB0116431EB3FBF6F3B3
:101BE0005B1C43F480431B0549D092B301EBC10257
:101BF00002EB0111401EB0FBF1F0401CC0F30B00E2
:101C000040F4804040F400402168CA694CF6FF73FC
:101C10009A431043C861D4E9071001432068026861
:101C200022F0C00211430160D4E90301014320689E
:101C3000826848F2FF339A4311438160D4E905106A
:101C400001432068C26822F0FF021143C16001E035
:101C50000EE016E02068016841F001010160256492
:101C6000202084F83D00256384F83E50002070BD9C
:101C700001EB4106431EB3FBF6F35B1CB3E7012007
:101C8000C2E701EB4101401EB0FBF1F0401CC0F384
:101C90000B00B7E7A086010080841E0000093D000C
:101CA00040420F00F0B587B0044614216846FEF7A5
:101CB00033FB2168224CDFF884C00027204A12231E
:101CC000032504261F481034614517D1116841F0DF
:101CD00002011160116801F002010591C0218DE837
:101CE0008A00CDE903566946FFF724FE206840F4D8
:101CF00000102060206800F400101BE0DFF848C0EE
:101D0000614518D1116841F002011160116801F0BC
:101D1000020105914FF440618DE88A00CDE9035638
:101D20006946FFF707FE206840F4800020602068C5
:101D300000F48000059007B0F0BD000000540040A2
:101D400030380240000402400058004002488168D8
:101D50000278114481607047280000200B4810B5BC
:101D6000016841F400710160016841F48061016023
:101D7000016841F480710160032000F0AFF80F208A
:101D800000F006F800F050F8002010BD003C0240C2
:101D900030B505461F4887B00024016841F00201B4
:101DA0000160006806A900F002000590684600F096
:101DB00041F90398A8B100F05DF940001649174AAF
:101DC000B0FBF1F11648491E026040F2E732C0E96B
:101DD0000324C0E90114846100F092FB040003D0E5
:101DE00015E000F047F9E9E70D4800F007FC0400B2
:101DF0000DD11D2000F045F8102D07D200222946F4
:101E00001D2000F04BF80748056000E0012407B0F2
:101E1000204630BD4038024040420F0000040040E0
:101E2000080500202C0000200C4882B0016841F415
:101E300080410160006800F4804000900748001F66
:101E4000016841F0805101600068002200F080507C
:101E500000900F21901E02B000F020B844380240DC
:101E600000280DDB00F01F02012191404009800095
:101E700000F1E020C0F88011BFF34F8FBFF36F8FE8
:101E80007047002809DB00F01F0201219140400942
:101E9000800000F1E020C0F800117047F0B40E4B54
:101EA0001B68C3F30223C3F10704042C00D90424E4
:101EB0001D1D072D01D2002300E0DB1E012606FABE
:101EC00004F56D1E0D409D409E40761E164045EA6D
:101ED0000601F0BC03F0A0B90CED00E0064A00F0EA
:101EE000070110684FF6FF03184040EA012003493C
:101EF00008431060704700000CED00E00000FA0598
:101F00002DE9F0470D46040065D0DFF81491D9F8AB
:101F10000000EFB200F00700A84207D289F8007075
:101F2000D9F8000000F00700A84254D120683D4EC7
:101F3000810712D5400703D5306840F4E050306087
:101F40002078000703D5306840F460403060306886
:101F5000A16820F0F000084330602078C0072DD041
:101F6000304960680839012812D0022813D00328AC
:101F700011D00968890700292DDA316821F00301A1
:101F800001433160FFF7C4FD804641F2883A0EE01C
:101F900009688903EFE709688901ECE7FFF7B8FDF5
:101FA000A0EB0801514502D90320BDE8F087306855
:101FB000616800F00C00B0EB810FEFD1D9F8001090
:101FC000484601F00701A94207D90770006800F0F0
:101FD0000700A84201D00120E7E72078400705D597
:101FE0003068E16820F4E050084330602078000752
:101FF00006D53068216920F4604040EAC1003060B5
:1020000000F058F83168084AC1F30311515CC84028
:102010000649086006480068FFF7BAFE0020C4E7DA
:10202000003C024008380240B47B00083400002025
:102030002C0000200F2202600C4A136803F00303F7
:102040004360136803F0F0038360136803F4E05304
:10205000C36012684FF4E05303EAD20202610448FD
:10206000006800F007000860704700000838024070
:10207000003C02400448054900680968044AC1F36D
:102080008221515CC840704734000020083802406B
:10209000C47B00080448054900680968044AC1F384
:1020A0004231515CC840704734000020083802407B
:1020B000C47B0008154810B5006810F00C011448E6
:1020C00013D0431004290FD008290ED10F4C241F20
:1020D000216801F03F022168490207D52068C0F35A
:1020E0008810A0FB030106E0184610BD2168C1F36B
:1020F0008811A1FB00010023FEF7C4F82168C1F399
:102100000141491C4900B0FBF1F010BD0838024004
:102110000024F4002DE9F84F040075D02078DFF892
:1021200038A3C007AAF1040548D00AF104000168E9
:10213000C1F38101012908D00068C0F381000228A1
:102140000AD1DAF80000400206D52868800335D5A8
:1021500060680028E1D031E06068B0F5803F10D0C1
:10216000B0F5A02F286810D020F4803028602868AF
:1021700020F4802028606068A0B1FFF7C9FC064603
:102180000CE0286840F48030F4E740F480202860B8
:10219000F7E7FFF7BDFC801B642871D8286880032F
:1021A000F7D50BE0FFF7B4FC064604E0FFF7B0FC00
:1021B000801B6428F1D828688003F7D42078DFF8E2
:1021C0009C9280074FF0000B3DD5A348001D01688D
:1021D00011F00C0F08D00068C0F3810002280AD16A
:1021E000DAF80000400206D42868800715D5E068B8
:1021F000012809D111E0E068B8B10120C9F8000058
:10220000FFF786FC064605E022E1FFF781FC801B14
:102210000228C2D828688007F7D52868216920F0ED
:10222000F80040EAC10028600DE0C9F800B0FFF7EF
:102230006FFC064604E0FFF76BFC801B02281FD8EA
:1022400028688007F7D42078000722D5824F844879
:102250006169703771B101210160FFF759FC0646D1
:1022600004E0FFF755FC801B022809D83868800776
:10227000F7D50EE0C0F800B0FFF74AFC064605E0CF
:1022800082E0FFF745FC801B02287DD83868800774
:10229000F7D42078400765D56F484FF000083C30F0
:1022A0000068C0000BD46C483C30016841F080519C
:1022B000016000684FF0010800F080500090694F05
:1022C0003868C0050FD4386840F480703860FFF774
:1022D0001FFC064604E0FFF71BFC801B022853D8B6
:1022E0003868C005F7D55C4FA0686C3701280FD05F
:1022F0000528386810D020F001003860386820F0D8
:1023000004003860A068B0B1FFF702FC06460EE09A
:10231000386840F00100F4E740F004003860F7E767
:10232000FFF7F6FB811B41F28830814263D83868A1
:102330008007F5D50DE0FFF7EBFB064606E0FFF75B
:10234000E7FB811B41F28830814254D8386880070E
:10235000F5D4B8F1000F05D03F483C30016821F0BA
:1023600080510160A069B8B33B49091D0968C1F3F8
:102370008101022946D00228584606D0C9F86000DB
:10238000FFF7C6FB044639E035E04F46C9F8600068
:10239000FFF7BEFB064604E0FFF7BAFB801B0228EE
:1023A00029D828688001F7D4D4E907010843A16A35
:1023B0002D4A490802EB0141626A41EA8211084351
:1023C00094F82C1040EA0161CAF800100120386628
:1023D000FFF79EFB044605E03CE0FFF799FB001B7E
:1023E000022808D828688001F7D533E0FFF790FB72
:1023F000001B022802D90320BDE8F88F286880015D
:10240000F4D427E00128F7D0DAF80000E26900F4FC
:10241000800191421CD1226A00F03F01914217D104
:1024200047F6C071626A0140B1EB821F10D1A26A07
:102430004FF0FF3300F4403103EB5202B1EB024F97
:1024400006D194F82C1000F07060B0EB016F01D051
:102450000120D1E70020CFE70438024000004742C6
:10246000800E4742007000400000FFFF7047704739
:1024700070B590F83C20012A32D0012580F83C50FC
:10248000022280F83D2002685368946823F07006A9
:102490000B6833435360134B02689A4214D0B2F175
:1024A000804F11D0104B9A420ED0104B9A420BD055
:1024B0000F4B9A4208D00F4B9A4205D00E4B9A42CE
:1024C00002D00E4B9A4204D1496824F0800319438C
:1024D000916080F83D50002180F83C10084670BDA6
:1024E000022070BD000001400004004000080040D0
:1024F000000C004000040140004001400018004072
:1025000010B5040003D094F83D0010B107E001209D
:1025100010BD002084F83C00204600F01FF8022087
:1025200084F83D00211D206802F06AF8012084F83B
:10253000460084F83E0084F83F0084F8400084F8A8
:10254000410084F8420084F8430084F8440084F891
:10255000450084F83D00002010BD000008B500686B
:102560002149B0F1804F0BD0204B0A1D984219D160
:10257000106840F480301060106800F480301BE078
:10258000086840F0010008600868002200F00100BF
:10259000009005211C20FFF781FCBDE808401C20AD
:1025A000FFF76FBC124B984208D1106840F400301E
:1025B0001060106800F40030009008BD0D4A904291
:1025C00007D1086840F080000860086800F08000CB
:1025D000F2E7094A9042F0D1086840F48070086040
:1025E000086800F48070E7E740380240004001408E
:1025F00000440140001C00400020004090F83D10C5
:10260000012901D001207047022180F83D100168A6
:10261000CA6842F00102CA6000681149884214D0B9
:10262000B0F1804F11D00F4988420ED00E49884238
:102630000BD00E49884208D00D49884205D00D497B
:10264000884202D00C49884204D1816801F0070118
:10265000062903D0016841F00101016000207047A4
:10266000000001400004004000080040000C004051
:1026700000040140004001400018004070B50446CD
:1026800090F83C000025012817D0012684F83C6012
:10269000022084F83D002068826822F0770222F44C
:1026A0007F4282600868502838D00DDC20284FD047
:1026B00005DC90B3102811D14AE0022070BD30280B
:1026C00046D040280AD13BE060282FD070280DD09A
:1026D000B0F5805F03D0B0F5005F12D0012584F81B
:1026E0003D60002084F83C00284670BDCB68D1E9ED
:1026F0000121206801F0F5FF2068816841F0770131
:1027000009E0CB68D1E90121206801F0EAFF2068E7
:10271000816841F480418160E1E719E0CA68496855
:10272000206802F0B3F85021206806E0CA684968C2
:10273000206802F0BCF86021206801F0DCFFCEE7E1
:10274000CA684968206802F0A1F840212068F4E7CF
:10275000226801461046F0E7704770B504460068ED
:1027600001694FF00005C943890715D4C168C94301
:10277000890711D4E91E0161012020772068806952
:102780008007204602D0FFF7E7FF04E000F0F6F8EC
:10279000204600F088F9257720680169C943490778
:1027A00017D4C168C943490713D46FF0040101610C
:1027B000022020772068806910F4407F204602D0F4
:1027C000FFF7CAFF04E000F0D9F8204600F06BF9EB
:1027D000257720680169C943090716D4C168C94330
:1027E000090712D46FF008010161042020772068E6
:1027F000C0698007204602D0FFF7AEFF04E000F07A
:10280000BDF8204600F04FF9257720680169C943DB
:10281000C90617D4C168C943C90613D46FF01001A3
:102820000161082020772068C06910F4407F2046AD
:1028300002D0FFF791FF04E000F0A0F8204600F07E
:1028400032F9257720680169C943C90708D1C168F1
:10285000C943C90704D1891E0161204600F08CF9E3
:1028600020680169C943090609D4C168C94309063A
:1028700005D46FF0800101612046FFF7F7FD206865
:102880000169C943490609D4C168C943490605D449
:102890006FF040010161204600F0B4F92068016941
:1028A000C94389060BD4C168C943890607D46FF0B0
:1028B000200101612046BDE87040FFF7D8BD70BD22
:1028C00070B586B0044614216846FDF725FD2448FE
:1028D0002168244A02230124032581420DD1106876
:1028E00040F0010010601068694600F0010005909A
:1028F00004208DE819001C480DE01C4E1C48B14214
:102900000FD1116841F020011160116801F0200120
:10291000059140211FE0CDE90335FFF70BF806B024
:1029200070BD144E0925B14209D1116841F0200152
:102930001160116801F020010591B1150BE00E4EF8
:10294000B142ECD1116841F020011160116801F031
:102950002001059171158DE81A006946DBE700003A
:102960000040014030380240000002400044014075
:1029700000140240001C004000200040704770B569
:10298000044690F83C0000260D4601280FD0012097
:1029900084F83C006AB1042A1DD0082A2FD00C2AE2
:1029A0003FD00126002084F83C00304670BD022054
:1029B00070BD206801F0A8FE2068816941F008011F
:1029C00081612068816921F0040181612068816949
:1029D0002A69114311E0206801F0C6FE2068816970
:1029E00041F4006181612068816921F48061816125
:1029F000206881692A6941EA02218161D2E7206861
:102A000001F0E8FE2068C16941F00801C161206859
:102A1000C16921F00401C1612068C1692A691143BB
:102A200011E0206801F00AFF2068C16941F40061EB
:102A3000C1612068C16921F48061C1612068C169F8
:102A40002A6941EA0221C161ACE710B5040003D054
:102A500094F83D0010B107E0012010BD002084F87B
:102A60003C00204600F01EF8022084F83D00211DA5
:102A7000206801F0C5FD012084F8460084F83E007E
:102A800084F83F0084F8400084F8410084F8420054
:102A900084F8430084F8440084F8450084F83D003D
:102AA000002010BD7047704710B5044649B1042995
:102AB0000AD008290BD094F8410001280AD001203F
:102AC00010BD94F83E00F8E794F83F00F5E794F85D
:102AD0004000F2E70220B1B3042938D0082939D0E8
:102AE00084F841000122206801F0EEFD1B492068B6
:102AF0001B4A884201D0904203D1436C43F4004307
:102B000043642068884213D0B0F1804F10D015493B
:102B100088420DD0144988420AD01449884207D00F
:102B2000904205D01249884202D01249884204D10D
:102B3000816801F00701062903D0016841F0010115
:102B40000160002010BDFFE784F83E00CAE784F86A
:102B50003F00C7E784F84000C4E7000000000140E0
:102B6000000401400004004000080040000C004048
:102B7000004001400018004010B5044600681B49A1
:102B8000884201D1FFF7E2F82068B0F1804F2CD1E4
:102B90001749184A194B08681060174A401C08600A
:102BA0001088401C80B210801978491CC9B2197075
:102BB000142901D3012159701149B0F57A7F12D33C
:102BC000002313804888401C80B248803C280AD3E8
:102BD0004B808888401C80B288803C2803D38B803F
:102BE000C888401CC8801088088010BD00040040C0
:102BF0000801002014010020F800002034580020B3
:102C0000F00000207047704770470000F8B5016879
:102C100004460868CA684B6910F00F0F4FF00005B2
:102C200059D003F0010602F49077374365D0C1070D
:102C300005D0D10503D5216C41F001012164410784
:102C400005D5D90703D0216C41F002012164810729
:102C500005D5D90703D0216C41F004012164010797
:102C600007D502F02001314303D0216C41F0080167
:102C70002164216C00293AD0800604D5900602D543
:102C8000204601F029FF20684069216CC0F38010C4
:102C9000090700D460B3204601F0E9FE20684069CE
:102CA000400621D52068143050E8001F21F0400173
:102CB00040E80012002AF5D1A06BA8B16C4901656B
:102CC000A06BFEF78FFB002811D0A06B016D01B047
:102CD000BDE8F040084783060FD593060DD5204682
:102CE000BDE8F84001F0F8BE2046FFF78DFFF8BDC3
:102CF0002046FFF789FF2564F8BD266B2023012EAF
:102D000079D1C60677D5D60675D50868486800908B
:102D10004869400640D5A16B086840680004000C73
:102D2000EAD0A28D8242E7D9E085C869B0F5807FFC
:102D30002DD020680C3050E8001F21F4807140E84D
:102D40000012002AF5D12068143050E8001F21F04D
:102D5000010140E80012002AF5D12068143050E843
:102D6000001F21F0400140E80012002AF5D184F84C
:102D70003E30256320680C3050E8001F21F0100120
:102D800040E80012002AF5D1A06BFEF7E2FAA08D10
:102D9000E18D401A81B229E0A08DE18D401A81B207
:102DA000E08D0028A8D00029A6D020680C3050E87B
:102DB000002F22F4907240E80026002EF5D1206802
:102DC000143050E8002F22F0010240E80026002EC7
:102DD000F5D184F83E30256320680C3050E8002F90
:102DE00022F0100240E80023002BF5D12046FFF727
:102DF0000AFFF8BDFFE705062BD5150629D594F87F
:102E00003D002128F5D1A068B0F5805F01D120698F
:102E1000B0B1206A411C2162216800784860E08CD2
:102E2000401E0004000CE084E3D12068C16821F05A
:102E30008001C1602068C16841F04001C160D8E7ED
:102E4000206A0088C0F308004860206A801C206265
:102E5000E5E74006CDD55006CBD5CA68204622F01E
:102E60004002CA6084F83D3000F0DBF9C1E70000A1
:102E70007949000870B5040004D094F83D0000259D
:102E800010B106E0012070BD84F83C50204600F0EF
:102E90006FF8242084F83D002068C16821F40051B7
:102EA000C160204601F078FE2068016921F490415C
:102EB00001612068416921F02A0141612068C168EF
:102EC00041F40051C1602564202084F83D0084F85D
:102ED0003E00002070BD000010B5044600681D4B88
:102EE0001D491E4A98420AD1086820F40020086053
:102EF0004FF440611046FEF73DFC342025E0184BAE
:102F000098420DD1086820F480100860991410468A
:102F1000FEF730FC04211348FEF72CFC352014E0AA
:102F20001149884215D10C48001D016821F010019B
:102F300001604FF4C0610D48FEF71CFC606BFEF7AA
:102F400063FAA06BFEF760FA2520BDE81040FEF79B
:102F500087BF10BD004C00404038024000080240CE
:102F600000500040000C02400010014000000240F0
:102F70002DE9F04387B0044614216846FDF7CCF9EB
:102F80006748664B2168DFF898C110380227012591
:102F90000326644A4FF008084FF00009994223D1F4
:102FA000DCF8001041F40021CCF80010DCF800102F
:102FB00001F400210591016841F0040101600068FD
:102FC00002AB00F004000590B002CDE9000783E8F1
:102FD000600169461046FEF7ADFC00220521342051
:102FE000FEF75CFF342037E04F4B994239D1DCF8D3
:102FF000001041F48011CCF80010DCF8001001F44E
:1030000080110591016841F004010160016801F03F
:1030100004010591016841F00801016000686946FA
:1030200000F0080005909814CDE9000702AB1046A7
:1030300083E86001FEF77EFC0420CDE9000702ABC7
:10304000694683E860013948FEF774FC00220521D7
:103050003520FEF723FF3520FEF713FF07B0BDE84C
:10306000F083334A9142F9D12D494D46091D0A6832
:1030700042F010020A60096801F010010591016830
:1030800041F0010101600068CDF8089000F00100F6
:1030900005904FF4C060CDE900070720CDE903603B
:1030A00069462448FEF746FC244E23484FF000674B
:1030B000E6E8020740204FF48068A6E8210180007E
:1030C00046F814594FF40039C6E90650C6E9089588
:1030D0001A48FEF79BFA08B1FDF7FAFC6663B46381
:1030E000164E1548603678383060C6E90175C6E975
:1030F00003587561B561C6E9075930467562FEF738
:1031000085FA08B1FDF7E4FCA6630022052125201D
:10311000B463FEF7C3FE25209EE70000004C00408C
:10312000403802400008024000500040000C0240BD
:103130000010014000000240B86402404804002032
:1031400090F83E30202B0ED159B152B190F83C305E
:10315000012B08D0012380F83C300023036301F0E9
:10316000A1BD012070470220704790F83E30202B0F
:103170000ED159B152B190F83C30012B08D0012347
:1031800080F83C300023036301F0D8BD0120704774
:10319000022070472DE9FE4F074602681B481A4B74
:1031A00000F14905061D6C1EDFF864B000F11C0A31
:1031B00000F1180900F114089A420ED100210170A3
:1031C000417014495B4652460878401C08708DE8EF
:1031D00070004946404601F0DBF80F4938688842E4
:1031E00007D18DE870005B4652464946404601F0E3
:1031F000CFF80A493868884203D1BDE8FE4F02F093
:103200004DBDBDE8FE8F0000001001403458002085
:10321000604E0020B800002000500040004C0040EC
:103220007047704710B500210D48FFF73DFC0021A5
:103230000C48FFF739FC00210B48FFF735FC06214D
:10324000002003F0BFFC0821002003F0BBFC092193
:10325000002003F0B7FCBDE810406420FEF778BA08
:10326000EC020020A402002034030020FEE700004E
:103270000022826590ED130A104B80ED070AB0F929
:10328000141000EE101AB8EEC00AB0EEC00A10EE2C
:10329000101A994210DCC16D491CC16532290ADB44
:1032A000C2659FED070A012180ED240A8165042192
:1032B000016080ED070A7047C26570470000F04169
:1032C0000000000070B592B0002408260094B00100
:1032D00001940C940A902A4DCDE90D46288B10AB31
:1032E000010A8DF800108DF80100B5F8B4006A46A7
:1032F000010A8DF802108DF80300B5F85001010A9B
:103300008DF804108DF80500B5F8EC01010A8DF870
:1033100006108DF807000AA91A48FDF7EDFB08B161
:10332000FDF7D6FB029403940694CDE907468DF889
:10333000244040F2FF100490B5F8880211AB010A56
:103340008DF808108DF80900B5F8240302AA010AC7
:103350008DF80A108DF80B00B5F8C003010A8DF83E
:103360000C108DF80D00B5F85C04010A8DF80E10F4
:103370008DF80F0004A90348FDF7BEFB12B070BD25
:103380007C4E00201C010020104810B50E49016041
:103390000321416000214FF400228160C0E9031243
:1033A0004FF4401242610176012242768176C17665
:1033B00001774177FDF71DFE002803D0BDE81040DE
:1033C000FDF786BB10BD0000006400401C0100201A
:1033D000104810B50E4901600321416000214FF4EF
:1033E00000228160C0E903124FF44012426101766D
:1033F000012242768176C17601774177FDF7F9FDAA
:10340000002803D0BDE81040FDF762BB10BD0000EE
:1034100000680040440100200D4808B5016841F4EF
:10342000800101600068002200F480000090052106
:103430003A20FEF733FD3A20FEF723FD0022052156
:103440004620FEF72BFDBDE808404620FEF719BDDB
:103450003038024010B51B4802F0D0FE1A4C194A11
:1034600001212062183A042002F09CFE154AE06116
:10347000F03A0021154802F0F5FE124A6060CC3A9D
:103480000021134802F0EEFE0E4AA060A83A002187
:10349000104802F0E7FE0B4AE060843A00210E4833
:1034A00002F0E0FE074A2061603A00210B4802F07A
:1034B000D9FE044A60613C3A0021094802F0D2FE7C
:1034C000A06110BD9C7B000800000020234500087F
:1034D000DD410008D93B000821490008116C0008B3
:1034E0007D5E00082DE9F04387B014216846FCF7A3
:1034F00013FF38480024016841F0040101600168AD
:1035000001F004010591016841F0200101600168AA
:1035100001F020010591016841F08001016001681E
:1035200001F080010591016841F00101016001682D
:1035300001F001010591016841F00201016001689B
:1035400001F002010591016841F008010160006885
:10355000214F00F008000590002203213846FEF7B5
:10356000D1FADFF878904FF4407600223146484691
:10357000FEF7C8FA072001258DE83100DFF86080EA
:1035800069464046FEF7D6F9802000904FF4881037
:10359000CDE9010469464046FEF7CCF903200090CE
:1035A000CDE90154694638460394FEF7C3F9009605
:1035B000CDE90154694648460394FEF7BBF9002261
:1035C00005211720FEF76AFC1720FEF75AFC07B00A
:1035D000BDE8F0833038024000000240000802409D
:1035E000001402400D4810B50B4901600C494160C0
:1035F00000214FF480428160C0E903124161816182
:10360000C1610162FEF78AFA002803D0BDE81040CC
:10361000FDF75EBA10BD0000005400406C010020B0
:10362000A08601000D4810B50B4901600C494160AE
:1036300000214FF480428160C0E903124161816141
:10364000C1610162FEF76AFA002803D0BDE81040AC
:10365000FDF73EBA10BD000000580040C001002038
:10366000A086010010B588B01C216846FCF754FE06
:1036700015481449002401605321C0E9011444F69F
:103680001F61C0E9031480218161FEF739FF08B191
:10369000FDF71EFA0C48FFF7D8F908B1FDF718FA44
:1036A0006020CDE900040294002269460648049493
:1036B000FFF765F908B1FDF70BFA0348FFF700F9CA
:1036C00008B010BD00440140A402002010B588B02D
:1036D0001C216846FCF720FE1548144900240160AF
:1036E0005321C0E9011444F61F61C0E9031480218D
:1036F0008161FEF705FF08B1FDF7EAF90C48FFF715
:10370000A4F908B1FDF7E4F96020CDE900040294C2
:103710000022694606480494FFF731F908B1FDF725
:10372000D7F90348FFF7CCF808B010BD001C0040E3
:10373000EC02002010B588B01C216846FCF7ECFDB7
:1037400015481449002401605321C0E9011444F6CE
:103750001F61C0E9031480218161FEF7D1FE08B129
:10376000FDF7B6F90C48FFF770F908B1FDF7B0F9AD
:103770006020CDE9000402940022694606480494C2
:10378000FFF7FDF808B1FDF7A3F90348FFF798F834
:1037900008B010BD002000403403002010B586B0F2
:1037A00000241748009401940294039404944FF069
:1037B0008041059401605321C0E9011442F2107167
:1037C000C0E9031480218161FEF79AFE08B1FDF77C
:1037D0007FF94FF48050009069460948FEF74EFF8C
:1037E00008B1FDF775F9049404A905480594FEF79E
:1037F0003FFE002801D0FDF76BF906B010BD0000B8
:103800001402002010B58CB0002407940894099489
:103810001C2168460A94FCF77FFD1A48184901608C
:103820005321C0E9011444F61F61C0E9031480214B
:103830008161FEF765FE08B1FDF74AF94FF480504B
:10384000079007A90F48FEF719FF08B1FDF740F9E7
:103850000C48FFF7FAF808B1FDF73AF96020CDE916
:10386000000402940022694606480494FFF787F892
:1038700008B1FDF72DF90348FFF722F80CB010BD91
:10388000004001405C0200200C4810B50A4901606C
:103890004FF4E1314160002181600C22C160C0E938
:1038A00004128161C161FFF7E5FA002803D0BDE889
:1038B0001040FDF70DB910BD004C00407C03002006
:1038C0000C4810B50A4901604FF4E1314160002114
:1038D00081600C22C160C0E904128161C161FFF7FF
:1038E000C9FA002803D0BDE81040FDF7F1B810BDBB
:1038F00000500040C00300200C4810B50A49016088
:103900004FF4E1314160002181600C22C160C0E9C7
:1039100004128161C161FFF7ADFA002803D0BDE850
:103920001040FDF7D5B810BD001001400404002080
:10393000B4EEE00AF1EE10FA01DDB0EE600AF1EE4D
:10394000600AB4EEE00AF1EE10FA01D2B0EE600ABD
:103950007047FEE72DE9F05F00252DED028B9FED0E
:10396000988ADFF860B22F46ABF50076A6F59C6A20
:10397000C5EBC50000EB45190AEB89042079052841
:103980007ED05AF82910091F08292BD2DFE801F050
:10399000040DBE112B856761B4F9140000EE100A06
:1039A000F8EEC00A94ED070A18E0204601F020FB6B
:1039B000F2E7B4F91A00D4ED240A00EE100A0BEB7A
:1039C00085108046B8EEC00A00F002FAB4F914007F
:1039D00000EE100AF8EEC00A98ED0E0A06EB85100C
:1039E00000F07CF992E0B4F9140000EE100A06EB46
:1039F00085108046F8EEC00A94ED190A00F06EF9C1
:103A0000B4F96C0000EE100AF8EEC00A98ED0E0A48
:103A1000FFF78EFF88ED0E0AB4F914006A4900EE34
:103A2000100AB8EEC00AB0EEC00A10EE100A8842C2
:103A30000DDC606F401C60670A2867DB0120C4E969
:103A40001C0704224AF8292084ED078A5EE0676794
:103A50005CE006EB8510278380ED0E8A56E0204659
:103A6000FFF706FCB4F9140000EE100A06EB85100F
:103A70008046F8EEC00A94ED070A00F02FF900E046
:103A800048E0B4F9540000EE100AF8EEC00A98EDD0
:103A90000E0AFFF74DFF88ED0E0A0BEB8510D4EDF3
:103AA000240A94ED1F0A804600F092F9B4F914003C
:103AB00000EE100A06EB8510F8EEC00A98ED0E0A2B
:103AC000804600F00BF9B4F9840000EE100AF8EE1D
:103AD000C00A98ED0E0AFFF72BFF88ED0E0AB4F925
:103AE0001400394900EE100AB8EEC00AB0EEC00A60
:103AF00010EE100A88422BDCD4F88C00401CC4F86D
:103B00008C00322802DB0120C4E922076D1C082D3D
:103B1000FFF62EAF00210B245546C1EBC10000EB90
:103B2000411255F82200062809D005EB82000379DE
:103B3000012B10D0022B21D0032B35D0C782491C7A
:103B40000829EADBBDEC028BBDE8F05FFFF7BABBEA
:103B5000C4F88C70DAE7B0F9163043F2C82C63452C
:103B600028DC06EB8112DFED190A92ED0E0A20EE39
:103B7000200ADFED170A80EE201A0FE0B0F91630A8
:103B800040F63C7C634515DC06EB81129FED110A83
:103B9000D2ED0E0A60EE800A80EE801ABDEEC10AF8
:103BA00010EE102A0283CAE7B0F9163040F63A0C3C
:103BB000634502DD45F82240C1E70781BFE7000009
:103BC000000000005C5500200000204100008046FD
:103BD00000409C4600401C46FFF7BCFE012002F05E
:103BE000A5FAF9E7094801210222017180F8A01025
:103BF00080F83C1180F8D81180F8742280F81013F6
:103C000080F8AC1380F84814704700007C4E002008
:103C100010B5BFEE002A2DED068B9FED208ADFED5B
:103C2000208A9FED209ADFED209A9FED20AAB0EE2A
:103C3000483AF0EE482AF0EE681AB0EE491AF0EE73
:103C4000690AB0EE4A0A1A4800F0A4F81848B0EE23
:103C5000483AF0EE482ABFEE002AF0EE681AB0EEBD
:103C6000491AF0EE690AB0EE4A0A403000F092F8C4
:103C7000B0EE483AF0EE482AF0EE690ABDEC068B49
:103C8000BFEE002AF7EE081AB0EE000A0848BDE8B9
:103C900010409FED081A403800F07CB8000000008A
:103CA0009A99993EC3F5A83E6F12833ACDCCCC3C8D
:103CB000405900200AD7233CFEE7B4EEE00AF1EEBB
:103CC00010FA01DDB0EE600AF1EE600AB4EEE00A2F
:103CD000F1EE10FA01D2B0EE600A704730EE600AE1
:103CE00000B580ED000AD0ED010A70EE600AC0ED6B
:103CF000050AD0ED080A20EE800AD0ED0B0AFFF786
:103D0000DCFFD0ED070A90ED051AB0EE002A00EEB8
:103D1000810AD0ED000A90ED021A70EE811A90ED42
:103D2000011A41EE421A90ED092A02EE210AD0ED65
:103D30000E1A70EE211AC0ED0E1A90ED0C0AF4EE78
:103D4000C01AF1EE10FA01DD80ED0E0AD0ED0E1A68
:103D5000B1EE400AF4EEC01AF1EE10FA01D280ED95
:103D60000E0AF5EEC00A80ED021AF1EE10FAC0ED6F
:103D7000010A01DCF1EE600A90ED060AF4EEC00AD9
:103D8000F1EE10FA03D29FED020A80ED0E0A00BD9B
:103D90000000000080ED062AC0ED0C1A00F11C01A5
:103DA00081EC030AB1EE610A80ED0D0A80ED0B3A59
:103DB0009FED060AC0ED0A2A80ED020A80ED010A95
:103DC00080ED000A80ED0E0A704700000000000040
:103DD00000B590F83C1030EE600A012906D180ED64
:103DE000010A80ED020A002180F83C1080ED000AF3
:103DF000D0ED040A30EE801A80ED041AD0ED010AED
:103E000030EE600A80ED050AD0ED080A20EE810A46
:103E1000FFF753FF90ED071AD0ED000AD0ED051A19
:103E200001EE200A90ED091A01EE210A80ED0E0A3A
:103E300090ED0C1AB4EEC10AF1EE10FA02DCB0EE0D
:103E4000401A01E080ED0E1A90ED0D0AB4EEC01A92
:103E5000F1EE10FA01D280ED0E0AF5EEC00AC0EDC7
:103E6000010AF1EE10FA01DCF1EE600A90ED060AAB
:103E7000F4EEC00AF1EE10FA03D29FED020A80EDD3
:103E80000E0A00BD0000000010B52DED088B9FED5F
:103E90007F8AB2EE042AB0EE483AF0EE482ADFED0F
:103EA0007C9AF0EE691A9FED7B9AB0EE491ADFED2D
:103EB0007A8AB2EE080A7948F0EE680AFFF76AFFDC
:103EC000B0EE483AF0EE482AB2EE042AF0EE691A53
:103ED0009FED731A7148F0EE680AB2EE080A40309E
:103EE000FFF758FF6D48B0EE483AF0EE482AB2EEC0
:103EF000042AF0EE691AB0EE491AF0EE680AB2EE42
:103F0000080A8030FFF746FFB0EE483AF0EE482A44
:103F1000B2EE042AF0EE691A9FED629A5F48F0EE65
:103F2000680AB0EE491AB2EE080AC030FFF732FF55
:103F3000B0EE483AF0EE482AB2EE042AF0EE691AE2
:103F4000B0EE491AF0EE680AB2EE080A5648FFF7DA
:103F500021FF5548B0EE483AF0EE482AB2EE042A66
:103F6000F0EE691AB0EE491AF0EE680AB2EE080AED
:103F70004030FFF70FFF4C48B0EE483AF0EE482AC9
:103F8000B2EE042AF0EE691AB0EE491AF0EE680AB1
:103F9000B2EE080A8030FFF7FDFEB0EE483ADFEDE2
:103FA000438AB2EE042AF0EE682ADFED411A9FED53
:103FB000411ADFED410A3C48B2EE080A4038FFF7EB
:103FC000E9FE9FED3E9A9FED3EAADFED3EAA9FEDF2
:103FD0003EBAB0EE483AF0EE492AB0EE4A2AF0EE88
:103FE000491AB0EE6A1AF0EE680AB0EE4B0A37488A
:103FF000FFF7D0FE3548B0EE483AF0EE492AB0EE71
:104000004A2AF0EE491AB0EE6A1AF0EE680AB0EEEB
:104010004B0A4030FFF7BEFE2C48B0EE483AF0EEB7
:10402000492AB0EE4A2AF0EE491AB0EE6A1AF0EECA
:10403000680AB0EE4B0A8030FFF7ACFE2348B0EEC2
:10404000483AF0EE492AB0EE4A2AF0EE491AB0EEAC
:104050006A1AF0EE680AB0EE4B0AC030FFF79AFE1B
:10406000B0EE483AF0EE492AB0EE4A2AF0EE691A6C
:10407000B0EE6A1AF0EE680ABDEC088BBDE810409D
:104080009FED130A1348FFF785BE00000000FA43B6
:1040900000401C46CDCC4C3ECDCCCC3E5C530020E9
:1040A000666606409A99993E9C54002000000000E4
:1040B00000409C45CDCCCC3D8FC2753C00C0DA455C
:1040C000CDCC4C3D0AD7233C333323415C550020F3
:1040D0006666A0425C56002070B5DFED3B1A90F892
:1040E0009420418AB0EE610A3AB10279012A0AD0DD
:1040F000022A0BD0032A0ED10BE0A0F89610012162
:1041000080F8941070BDB3EE030A04E09FED2F0A0F
:1041100001E0B7EE000AB0F91430DFED2D0A9FED93
:104120002D1A2D4A41F6FF74002B1FD020DDB0F868
:1041300096309942A1EB030304D2234440F2E244B7
:10414000A3420BDA01EE903AF8EEE11A81EEA02AD2
:1041500062EE010A80EE801A82ED001A92ED000AEA
:10416000B5EEC00AF1EE10FA22DC27E0C2ED001A2B
:10417000B0F89630994224D9641A04F2E1451D44FE
:1041800040F6C216B5420CD8234401EE903AF8EE40
:10419000E11A81EEA02A62EE010A80EE801A82ED19
:1041A000001A92ED000AB5EEC00AF1EE10FA05D23F
:1041B000D0ED240A30EE800A80ED240AA0F8961093
:1041C00070BDCB1AE1E700000000000000001042C3
:1041D00000F8FF450000B443E80000201CB50025AE
:1041E000074C0126CDE90065E27894F84B1094F86D
:1041F0004A00002300F026FE322001F097FFF1E78D
:1042000034580020084800B5417839B1042000F046
:1042100061FB0649002081F83C0000BD90F8490090
:104220005DF804EB00F056BB34580020244E00200B
:1042300070B54E4D2DED048B95ED0E0A9FED4C9A09
:1042400060EE090ADFED4B8A80EEA80A10EE100A34
:10425000FCF713FA41EC100B00F0EEFF51EC100BE1
:10426000FCF71EFA95ED0E0A08EE100A60EE090A38
:1042700080EEA80A10EE100AFCF7FFF941EC100BD3
:1042800001F03EF851EC100BFCF70AFA00EE100AB0
:1042900095F83E0001280FD1D5ED030A95ED041ADB
:1042A00060EE881A41EE401A20EE800A01EE080AFC
:1042B000C5ED011A85ED020AD5ED010A9FED2E1A12
:1042C000D5ED021A95ED050A20EE813A9FED2B2AD5
:1042D000DFED2B2A2D4E01EEC13A002400EE023A0A
:1042E00063EE223A9FED273A83EE834ADFED263ACA
:1042F00061EEA33A61EE811A40EEC13A40EE023A15
:1043000085ED094A63EEA23A83EE834AF0EE613A04
:1043100040EE811A40EEC13A40EE021A40EE023AF7
:1043200021EEA20A63EEA23A85ED0A4AC0EE030A24
:1043300083EE834A85ED0B4AC5ED0C0A05EB84003C
:1043400090ED090ABDEEC00A10EE100A01B2C4EBEE
:10435000C40000EB441006EB800000F0D9F8641CA8
:10436000042CEBDBBDEC048B70BD0000244E002060
:10437000DA0F494000003443E604353FEE7CBF3E8F
:1043800000800E44C57D743EE60435BF7C4E00209F
:104390002DE9F05F514C93468A46814602269846A5
:1043A00026700122611C4E48FEF7CAFE60794D4D11
:1043B0004FF0000C11280BD003202070E078012171
:1043C000C0B101281BD0022829D0032804D13FE026
:1043D0006078AA2801D020717CE02079552879D115
:1043E00084F805C02870AA20687084F803C084F897
:1043F00002C06FE06078A8706081E1706AE0B4F993
:10440000060061782A18401CD17000B2E080B4F92F
:104410000A1088425EDBA4F806C0E6705AE0B4F9E0
:104420000A0061782A18C01CD170C1B22D4802F070
:10443000B1FBA070B4F90A102944C978814203D0B5
:1044400029A001F0A5FD45E0E078401CE07041E0C6
:10445000B4F9080010B1012802D03BE0218139E015
:104460001E4BA4F808C010331E1D371DB4F90800F8
:104470002918CA781A54CA793254C97A3954401C56
:1044800000B220810428F1DB93ED000A89ED000AD7
:1044900096ED000A8AED000A97ED000A8BED000AFE
:1044A000E97B88F800100A98297C01700B98697CD8
:1044B00001700C98A97C017084F803C084F804C0D2
:1044C0001120607184F802C0A4F80AC0A4F806C0E4
:1044D000A4F808C00020BDE8F09F0000B80000204C
:1044E00004040020644E00205265636569766564AB
:1044F0002074656D5F617272617920636865636BBA
:104500002073756D206572726F72210D0A000000B4
:1045100000EE101A04220260B8EEC00A80ED070A0D
:1045200070470A2001F002FEFBE710B54FF0E020D3
:10453000006903F00BF9012803D0BDE8104002F038
:10454000FDBD10BD30B593B030216846FBF7E4FEE9
:1045500014210CA8FBF7E0FE1D480025016841F07E
:1045600080510160006800F0805011901948016886
:1045700041F4804101600068022400F48040119001
:1045800001200090000401908001CDE9064008AAB6
:104590000420A82182E813000B906846FDF7BAFDBD
:1045A00008B172B6FEE70CA90F2081E831004FF484
:1045B000A0500F904FF48050109005210CA8FDF7EB
:1045C0009FFC002801D072B6FEE713B030BD00009A
:1045D00040380240007000400248016841F4700118
:1045E0000160704788ED00E00148FEF7B6B80000B2
:1045F000140200200148FEF7B0B8000008050020B2
:10460000F0B50268254D264E264FDFF89CC0274B9B
:104610004FF0804EA84209D0704507D0B04205D077
:10462000B84203D0604501D0984203D122F0700413
:104630004A682243A8421BD0704519D0B04217D017
:10464000B84215D0604513D0984211D0184CA04202
:104650000ED0184CA0420BD0174CA04208D0174CDB
:10466000A04205D0164CA04202D0164CA04203D165
:1046700022F44074CA6822434C6922F0800222432B
:1046800002608A68C2620A688262A84201D09842C7
:1046900001D10969016301214161F0BD00000140C0
:1046A0000004004000080040000C004000040140ED
:1046B0000040014000440140004801400018004013
:1046C000001C00400020004010B501F01F01012334
:1046D000046A8B409C430462036A8A40134303626A
:1046E00010BD10B5846842EA032224F47F440A43D3
:1046F0002243826010BD826822F070020A4342F0B9
:104700000701816070470000F0B5026A22F00102E3
:104710000262026A43688469114E24F073050C68D2
:10472000104F2C4322F002058A682A43B04201D080
:10473000B84205D122F00805CA682A4322F00402D3
:10474000B04201D0B84205D14D6923F440731D43F6
:104750008B692B4343608461496841630262F0BD09
:104760000000014000040140F0B5026A22F010028E
:104770000262026A436884690D6824F4E64444EAEC
:1047800005248D6822F0200242EA05120F4D104EDA
:10479000A84201D0B04206D1CF6822F0800242EA9E
:1047A000071222F04002A84201D0B04207D14D6961
:1047B00023F4406343EA85038D6943EA850343603C
:1047C0008461496881630262F0BD0000000001401D
:1047D00000040140F0B5026A22F480720262026AAB
:1047E0004368C46922F4007224F073050C68124E09
:1047F0002C438D6842EA05220E4DA84201D0B042FA
:1048000006D1CF6822F4006242EA072222F48062D5
:10481000A84201D0B04207D14D6923F4405343EA86
:1048200005138D6943EA05134360C4614968C16398
:104830000262F0BD000001400004014030B5026A90
:1048400022F480520262036A4268C4690D6824F44B
:10485000E64444EA05248D6823F4005343EA053313
:10486000084DA84202D0084DA84204D14D6922F457
:10487000804242EA85124260C46149680164036271
:1048800030BD0000000001400004014010B5046A82
:10489000036A23F001030362836923F0F00343EA10
:1048A000021324F00A020A438361026210BD10B5AC
:1048B000036A23F0100303628469036A24F47044DA
:1048C00044EA023223F0A00343EA0111826101624B
:1048D00010BD000010B503210D4A022301EBC104F5
:1048E00002EB8404491CA3700529F7DB022807D0DA
:1048F000032802D09FED070A04E09FED070A01E0BC
:104900009FED060A82ED230A82ED2C0A10BD0000FD
:104910005C570020000000009A99193ECDCC4CBD98
:104920000D4E0E4D0027002495F90000204400EBA9
:10493000C00006EB800000F019FB641C022CF3DBC6
:104940002878801C40B22870062800DB2F700120D8
:1049500001F0ECFBE7E700005C57002000000020BE
:104960000148FEF753B900007C0300200148FEF720
:104970004DB90000C003002010B5806B0021C18537
:10498000C184FEF741F910BD70B5846B20684069A1
:1049900094F83D10C0F3C0100025212904D118B1AE
:1049A000E584204600F08AF82068406994F83E10BB
:1049B000C0F38010222904D118B1E585204600F00B
:1049C00056F8206C40F0100020642046FEF71CF9D9
:1049D00070BD10B50146806B09680968C9052FD400
:1049E0000021C18501680C3151E8002F22F480724A
:1049F00041E80023002BF5D10168143151E8002F64
:104A000022F0010241E80023002BF5D101681431A6
:104A100051E8002F22F0400241E80023002BF5D19D
:104A2000202180F83E10016B012909D101680C3169
:104A300051E8002F22F0100241E80023002BF5D1AD
:104A4000016B012902D0FEF7A5FB10BD818DFEF799
:104A5000DAF810BD10B5806B016B012902D0FEF7AA
:104A6000DFFB10BD818D4908FEF7CDF810BD016850
:104A70000C3151E8002F22F4907241E80023002B02
:104A8000F5D10168143151E8002F22F0010241E80C
:104A90000023002BF5D1016B012909D101680C31EC
:104AA00051E8002F22F0100241E80023002BF5D13D
:104AB000202180F83E1000210163704701680C310D
:104AC00051E8002F22F0C00241E80023002BF5D16D
:104AD000202180F83D10704708B590F83E1022293B
:104AE00001D0022008BD81684FF48053994201D162
:104AF000026922B1826A99421BD049B10AE0026878
:104B0000816A5268C2F308020A80816A891C08E03F
:104B1000016971B10168496801F07F011170816A12
:104B2000491C8162C18D491E0904090CC18503D04D
:104B300019E001684968F1E70168CA6822F02002BB
:104B4000CA600168CA6822F48072CA6001684A6952
:104B500022F001024A61202180F83E10016B0129F8
:104B600003D0FEF717FB002008BD00210163016898
:104B70000C3151E8002F22F0100241E80023002BF5
:104B8000F5D101680A68D20602D50A684968009121
:104B9000818DFEF738F8E6E770B5044600680169D4
:104BA000E26821F4405111430161A1682069E26982
:104BB00001436069104301432068C26849F20C63F5
:104BC0009A430A43C26020684169A26921F4407196
:104BD0001143416131492068884202D030498842FE
:104BE00002D1FDF757FA01E0FDF744FAE26900232C
:104BF000192164253226B2F5004F626828D0A0FB47
:104C00000101930F9200FBF73DFB0146B0FBF5F06D
:104C10006FF01802504301EB800006EB0010B0FB70
:104C2000F5F000F0F002B1FBF5F002EB0012B1FB81
:104C3000F5F06FF01803584301EB800006EB00100D
:104C4000B0FBF5F000F00F0021681044886070BDE3
:104C5000A0FB010192185B41FBF714FB0146B0FB7E
:104C6000F5F00201B1FBF5F06FF01803584301EBCA
:104C7000800006EBC000B0FBF5F000F0F80002EB9E
:104C80004002B1FBF5F0584301EB800006EBC00099
:104C9000B0FBF5F000F00700D6E70000001001407F
:104CA0000014014037B582B01346039A82628385AF
:104CB000002504460564222084F83E00A16B1C48B0
:104CC000C863A16B1B480864A16B1B48C864A06B38
:104CD00005652168A06B091DFCF702FD20680168CD
:104CE0004068009084F83C50206948B120680C303E
:104CF00050E8001F41F4807140E80012002AF5D10D
:104D00002068143050E8001F41F0010140E8001213
:104D1000002AF5D12068143050E8001F41F040010E
:104D200040E80012002AF5D105B0002030BD000097
:104D3000D3490008554A00088949000881628285E4
:104D4000C28500210164222280F83E2080F83C10B8
:104D5000016921B10168CA6842F48072CA600168C1
:104D60004A6942F001024A610068C16841F02001CD
:104D7000C1600020704700000148FDF747BF0000F8
:104D80000404002030B5084DEB6807E014682406E1
:104D9000FCD510F8014B54605B1CEB608B42F5DBDB
:104DA0000020E86030BD0000B8000020224991EDED
:104DB000032A81ED062AD1ED041AC1ED071AD0EDC0
:104DC000000AC1ED000A90ED010A81ED010A90EDA3
:104DD000020A81ED020A90ED030A81ED030A90EDCB
:104DE000041A30EE422A81ED041AD0ED052A71EE44
:104DF000611AC1ED052A114881ED082AC1ED091A91
:104E0000C0ED0E0AD1ED0A2A01F1300032EE822AFD
:104E100081ED0A2A91ED0B2A72EE211AF1EE611A48
:104E2000C1ED0B1A80ED000AB1EE410A80ED010AD6
:104E3000C0ED020A7047000080580020244E002078
:104E4000FEE70000FEB50024DDE908CE154F009412
:104E500001946D4602943E5D2E55641C022CFADBD3
:104E60008DF8041006248DF802408DF805208DF889
:104E700003008DF806308DF807C08DF808E0092191
:104E8000284601F087FE8DF809000D208DF80A00F4
:104E90000A208DF80B00044A0C216846FFF772FFC8
:104EA000FEBD0000CC7B00080010014000B58BB0B7
:104EB00000200121CDE906010590009001900290AB
:104EC000039004900E20CDE9081069460E48FBF7C8
:104ED00081FE08B1FBF7FCFD0B48FCF708FA08B1AE
:104EE000FBF7F6FD01210848FBF7F4FD08B1FBF7DD
:104EF000EFFD02210448FBF7EDFD002801D0FBF790
:104F0000E7FD0BB000BD00001C01002000B58BB018
:104F10000F20059000200121CDE9060100900190AD
:104F20000290039004900E20CDE9081069460E48C7
:104F3000FBF750FE08B1FBF7CBFD0B48FCF7D7F9A8
:104F400008B1FBF7C5FD02210748FBF7C3FD08B117
:104F5000FBF7BEFD01210448FBF7BCFD002801D092
:104F6000FBF7B6FD0BB000BD4401002010B50446B0
:104F7000807820B994ED060A607800F0D3FFA0781D
:104F8000012804D194ED070A607800F07DFFA07835
:104F9000022804D194ED080A607800F08FFFA07811
:104FA000032806D194ED050A6078BDE8104000F0B2
:104FB0009FBF10BD0D48042165220170427080F82A
:104FC0002410662280F8252080F84810672180F898
:104FD0004910062180F86C10682280F86D2080F856
:104FE0009010692180F89110704700005C570020F4
:104FF00010B504462DED028B4FF07E51D0ED0F2AF7
:1050000012EE900A9FED768A884218DCF5EEC02AEF
:10501000F1EE10FA13D394ED103A13EE100A884211
:105020000DDCB5EEC03AF1EE10FA08D394ED0D2A7E
:1050300094ED0C1AB4EEC12AF1EE10FA04D284ED0C
:10504000078ABDEC028B10BD94ED0A0AD4ED0B0A61
:10505000B4EE600AF1EE10FA04D121EE020A84EDFA
:10506000070AEEE770EEC01AF5EEC01AF1EE10FA7C
:1050700001DC70EE601AB0EE004AF4EEC00A62EE97
:10508000A12A23EE213A71EEE23A62EE845A73EEDF
:10509000C34A62EE023A23EE043A41EE413A83EE0D
:1050A000A55AD4ED0E3A63EEA33AB0EE636A02EE6F
:1050B000426AC6EE035AF1EE10FA06DD94ED243A88
:1050C000B4EEC03AF1EE10FA23D3F4EEC00AF1EEDA
:1050D00010FA06D294ED243AB4EEC03AF1EE10FA8A
:1050E00017DCF4EEC00AF1EE10FA06DD94ED243A76
:1050F000B4EEE03AF1EE10FA0BDCF4EEC00AF1EE99
:1051000010FA09D294ED243AB4EEE03AF1EE10FA36
:1051100002D284ED071A3CE094ED243A73EE400A83
:10512000F5EEC00AF1EE10FA01DC70EE430AF4EE7F
:10513000E20AF1EE10FA08D221EE010A25EE041A75
:1051400001EE200A10EE100A18E032EEA40AB4EEC6
:10515000E00AF1EE10FA02DD84ED072A19E031EEE3
:10516000E00A25EE841AB5EEC00AF1EE10FA01DC71
:1051700030EEE10A41EE403A13EE900AFBF77DFA79
:1051800041EC100B00F020F951EC100BFBF788FA02
:10519000E06194ED0B0AD4ED0A0AB4EEE00AF1EEF8
:1051A00010FA05D2D4ED070AF1EE600AC4ED070A41
:1051B000D4ED240A0B4930EEC00AB0EEC00A10EE5E
:1051C000100A884203DA0120606484ED078A10EE39
:1051D000100A88427FF745AF0020606431E7000085
:1051E000000000000000404003B401984100009816
:1051F00050EAC12018BF04204A0D18BF40F001003A
:1052000040F2FF72B2EB515F08BF40F0020001288C
:1052100008BF052002B070470907090E002804DB0B
:1052200000F1E02080F80014704700F00F0000F15A
:10523000E02080F8141D704710B52F499FED2C1BFE
:105240002DED020B84B0059820F000408842D8BFB5
:105250009DED040B2DDD2949884209D1049840B900
:105260004FF0010000F014FD00F0E2FC06B010BDAC
:1052700005DB9DED040B00F0CFFC06B010BD6846C9
:105280009DED040B00F0E0F810F0030004BF9DED6D
:10529000021B9DED000B0CD001280ED09DED021BD2
:1052A0009DED000B022817D0012000F01DFC06B078
:1052B00010BD00F0E5FA06B010BD9DED021B9DED9E
:1052C000000B012000F010FC51EC100B81F00041AC
:1052D00006B041EC100B10BD00F0D2FA51EC100BEF
:1052E00081F0004106B041EC100B10BD0000000041
:1052F0000000000000000000FB21E93F0000F07FFB
:1053000010B52F499FED2C1B2DED020B84B0059895
:1053100020F000408842DCBF00209DED040B32DD10
:105320002849884209D1049840B94FF0010000F0A3
:10533000AFFC00F07DFC06B010BD05DB9DED040B5D
:1053400000F06AFC06B010BD68469DED040B00F04D
:105350007BF810F0030011D0012818D09DED021B3E
:105360009DED000B02281AD000F08AFA51EC100BC8
:1053700081F0004106B041EC100B10BD9DED021B09
:105380009DED000B012000F0AFFB06B010BD9DEDC0
:10539000021B9DED000B00F073FA06B010BD01205A
:1053A00000F0A2FB51EC100B81F0004106B041EC83
:1053B000100B10BD00000000000000000000000005
:1053C000FB21E93F0000F07F00B52DED048BB0EE2E
:1053D000409AF0EE609A83B051EC190BFBF741FA5A
:1053E00041EC180B18EE100A18EE901A8DED008B98
:1053F000002818BF0120084320F00040C0F17F6062
:1054000000F1E040C00F14D019EE101A19EE900A06
:105410008DED009B002918BF0121084320F00040BA
:10542000C0F17F6000F1E040C00F04BF012000F038
:105430002FFCB0EE480A03B0F0EE680ABDEC048B16
:1054400000BD0000000000002DE9F14F04462DEDE5
:10545000020B2DED088B8AB09FEDE70B80ED020B60
:10546000139EE74826F0004585420ADC9DED120BAD
:10547000002084ED000B0AB0BDEC088B03B0BDE842
:10548000F08FE0489FEDE0AB9FEDE1BBA84247DD28
:10549000E14F9FEDE39B9FEDE48B9DED120B53ECF1
:1054A0001A2B51EC100B002E1CDDFAF7E1FF41EC3A
:1054B000100BBD4208D053EC1B2B51EC100BFAF72C
:1054C000D7FFC4E900010BE053EC192B51EC100B92
:1054D000FAF7CEFF53EC182BFAF7CAFFC4E9000124
:1054E0000120C8E7FAF723FF41EC100BBD4208D0BA
:1054F00053EC1B2B51EC100BFAF719FFC4E9000118
:105500000BE053EC192B51EC100BFAF710FF53EC96
:10551000182BFAF70CFFC4E900014FF0FF30AAE79F
:10552000C348A84279DB9DED120B51EC100B00F043
:1055300035FD41EC180B9FEDC00B53EC102BFAF727
:105540009DFF9FEDBF1B53EC112BFAF7F0FEFBF70D
:10555000EBF90746FBF773F841EC190B53EC1A2BE8
:10556000FAF78CFF53EC182BFAF785FF41EC180B78
:1055700053EC1B2B51EC190BFAF780FFDFF8C8A294
:1055800041EC100B4FEA15580125FA4453EC102B4F
:1055900051EC180BFAF76CFF032DC4E900013DD064
:1055A000C1F30A5005EB4511A8EB00001139814207
:1055B00034DA0AEB051BB0EE48AA9BED000BF0EEC7
:1055C00068AA53EC102B51EC190BFAF757FF41EC7A
:1055D0001B0B51EC1A0B53EC1B2BFAF749FF41EC58
:1055E000180B51EC1A0B53EC182BFAF741FF53EC44
:1055F0001B2BFAF73DFF9BED020B41EC1A0B53EC12
:10560000102B51EC190BFAF739FF53EC1A2BFAF760
:105610002FFF41EC100B6D1CB8E70EE0002EA8BF69
:105620003846BFF628AF94ED000B51EC100B81F01B
:105630000041C4E9000178421DE7C6F3130040F4BD
:10564000801EC6F30A50A0F2F530471100F01F0586
:10565000C5F12000DDF848B00890002006900790C2
:105660000520EC467949002D07EB0002794408BF7C
:1056700051F8221009D051F8223001EB8201AB40E1
:105680004A68089922FA01F11943A1FB0E26A1FBF1
:105690000B131A449A4234BF0123002303EB06087C
:1056A0000CEB8003D3E901A60E448E4234BF0121E6
:1056B000002192448A4411B1924502D903E09245F7
:1056C00001D2012100E00021C3E901A641444CF8C8
:1056D0002010011EA0F10100C4DC029800F100506E
:1056E000850F0298DDE903678000DDF81480FAF782
:1056F000A6FF41EC1A0B3046FAF7B2FF9FED541BA0
:1057000053EC112BFAF7BAFE41EC1B0B3846FAF7B3
:10571000A7FF9FED511B53EC112BFAF7AFFE41ECA5
:10572000180B4046FAF79CFF9FED4D1B53EC112BD5
:10573000FAF7A4FE41EC190B51EC180B53EC192BA2
:10574000FAF7F5FD53EC1B2BFAF7F1FD53EC1A2B8E
:10575000FAF7EDFDCDE90801002008909DED080B5A
:1057600053EC1A2B51EC100BFAF782FE53EC1B2B67
:10577000FAF77EFE53EC182BFAF77AFE53EC192B4E
:10578000FAF779FE9FED381B53EC112BFAF776FEF2
:105790009FED370B41EC180B53EC102B9DED080BD4
:1057A00051EC100BFAF76AFE53EC182BFAF7BFFD19
:1057B0009FED310B41EC180B53EC102B9DED080BBA
:1057C00051EC100BFAF75AFE53EC182BFAF7AFFD19
:1057D00041EC100B139810F0004F06D06D4251ECC5
:1057E000100B81F0004141EC100B284684ED000BBA
:1057F00041E6000000000000000000000000000082
:10580000FB21E93F7CD9024000004054FB21F93FD5
:105810003163621A61B4D03DFB21F93F0000000002
:105820000000601A61B4D03D7370032E8A19A33B47
:10583000FB2139410000000083C8C96D305FE43F9F
:10584000000000000000E03F72260000C0250000BC
:10585000000000000000103E000000000000103CAE
:10586000000000000000103A182D4454FB21F93DBF
:105870003326A611460B113C00000054FB21F93DD4
:1058800010B52DED040B2DED088B82B0B0EE419AD2
:10589000F0EE619A0B9820F000449FED4BABB4F111
:1058A000795F11DA9DED0A0B51EC100BFBF73CF818
:1058B000002801BFB0EE4A0AF0EE6A0A02B0BDEC61
:1058C000088B04BF04B010BD9DED0A0B53EC102BE8
:1058D00051EC100BFAF7D2FD41EC180B3C480621B5
:1058E000B0EE480AF0EE680A784400F081F853EC14
:1058F000182B51EC100BFAF7C1FD9DED0A0B41EC92
:105900001B0B53EC192B51EC100BFAF7B7FD41ECC4
:10591000190B53EC1B2B51EC180BFAF7AFFD53ECA2
:10592000192BFAF7A5FD9FED2C0B41EC190B53EC4D
:10593000102B51EC180BFAF7A1FD41EC100B284885
:10594000844210DA53EC192B51EC100BFAF790FD4E
:1059500053EC1A2BFAF78FFD41EC100B02B0BDECA3
:10596000088B04B010BD1F48A042BCBF9FED1E1B9A
:105970008DED001B06DBA4F50010019000200090C7
:105980009DED001B51EC100B53EC112BFAF770FD41
:105990009DED000B41EC180B53EC102B51EC1A0B46
:1059A000FAF766FD41EC1A0B53EC192B51EC180B6E
:1059B000FAF75EFD53EC1A2BFAF75DFD41EC100B84
:1059C000CCE7000000000000000000000000F03FF5
:1059D000E422000000000000000000000000E03FA2
:1059E0003333D33F0000E93F000000000000D23F06
:1059F00070B504462DED028B4D1E00EBC500B0EED8
:105A0000408AF0EE608A90ED000B35F0060017D06A
:105A100053EC182B51EC100BFAF730FD41EC100B46
:105A20006D1E04EBC50090ED001B51EC100B53EC08
:105A3000112BFAF77CFC41EC100B35F00600E7D196
:105A4000022D36D0042D1CD0062D1CBFBDEC028BC0
:105A500070BD53EC182B51EC100BFAF70FFD94EDC1
:105A60000A1B53EC112BFAF762FC53EC182BFAF7D4
:105A700005FD94ED081B53EC112BFAF758FC41EC93
:105A8000100B53EC182B51EC100BFAF7F7FC94EDBC
:105A9000061B53EC112BFAF74AFC53EC182BFAF7C0
:105AA000EDFC94ED040B53EC102BFAF740FC41ECA9
:105AB000100B53EC182B51EC100BFAF7DFFC94EDA4
:105AC000021B53EC112BFAF732FC53EC182BFAF7AC
:105AD000D5FC94ED001B53EC112BFAF728FCBDEC20
